S00B0000626173652E7333374E
S214012000C80A0020196B0100F1470300F1470300DD
S21401201041630300F1470300F1470300F147030062
S214012020F1470300F1470300F1470300F1470300BE
S214012030F147030024270400F5630300F14703007A
S214012040F1470300F1470300F1470300F14703009E
S214012050F1470300F1470300F1470300F14703008E
S214012060F1470300F1470300F1470300F14703007E
S21401207099D50100F1470300F1470300F14703003A
S214012080F1470300F1470300F1470300F14703005E
S214012090F147030045770100F1470300F1470300CC
S2140120A0F14703006D7201004D720100F147030014
S2140120B0F1470300C5DF0200F147030029EA0200E9
S2140120C0A7DB0300A3DB030005E20200BDDB030080
S2140120D0ABDB0300F9E90200AFDB030069EA0200AB
S2140120E03DC1020001C30200D5EA0200F147030028
S2140120F0F1470300F1470300F1470300F1470300EE
S214012100F1470300F1470300F1470300F1470300DD
S214012110F1470300F1470300F1470300F1470300CD
S214012120F1470300F1470300F1470300F1470300BD
S214012130F1470300F1470300953E01001B380300F9
S21401214082B030BF074BD3F8F030DB0704D500234D
S2140121500193019B052B01DD02B07047019B013302
S214012160F6E700BF00ED00E0F0B5114A114C124E43
S21401217000F00105E3695F0713D40DB9334213D1AB
S21401218003EA00078F4207D10B4A1A40002A0CBF08
S21401219000206FF00100F0BD013AEBD16FF00200B4
S2140121A0F9E74FF0FF30F6E76FF00100F3E700BF05
S2140121B08096980000000350020001000B4B70B59A
S2140121C0D96911F480310DD101244FF48072084E83
S2140121D0084DF46020462C641A61FFF7C5FF34648D
S2140121E0EC6070BD6FF00100FBE700BF000003501C
S2140121F000100350002003504FF4003238B50F4B47
S2140122000F4C9A6641F671330122E569E3630D4B83
S2140122100021DA60022360612120236105F4803504
S214012220FFF7A2FF10B92120FFF79EFF0122064B00
S214012230DA600DB10023E36338BD00BF00900050A3
S21401224000000350001003500020035070B5134CDB
S2140122506061E3695B071ED40E4656F8043B8D1891
S214012260A361AE420BD10423002121202361FFF795
S2140122707BFF58B9BDE870402120FFF775BF0821E4
S2140122800846FFF771FF10B10423236170BD56F8AD
S214012290043BA361E5E74FF0FF30F7E7000003508A
S2140122A02DE9F84315464FF40032184B89469A66D5
S2140122B041F6713203F51C33DF69DA630122064603
S2140122C003F58053DFF84C8007F48037DA6055B9A0
S2140122D0284601220E4BDA601FB10022A3F50053F7
S2140122E0DA63BDE8F88306F5005404EA0804A41B83
S2140122F0AC4228BF2C46494622463046FFF7A6FF89
S2140123000028E6D12644A1442D1BE0E700900050AA
S2140123100020035000E0FFFF000000000000000066
S214012320013800D0FCE7704770B52DED048B012015
S21401233088B003F0CFFC054608B3654C65492068B4
S21401234023F0C1FA6449206823F0BDFA21F077FA38
S21401235021F076FA614B624A009362494FF4A0730A
S214012360206823F0B0FA604A6049206823F0ABFA8F
S2140123702A465F49206823F0A6FA00BEFDE75D4BBA
S2140123804021186822F084F80446002840F0848032
S214012390102003F079F9FA20F0EE409A0BF09EF83F
S2140123A0102003F071F951230DF11F010DF11E00EC
S2140123B0B0EE409AE6258DF81E308DF81F4003F0EA
S2140123C009F904230DF11F010DF11E008DF81F30D0
S2140123D08DF81E5003F0FEF8FA200BF07FF810205F
S2140123E003F052F9F0EE408A0DF11E000DF11F01C7
S2140123F08DF81E508DF81F4003F0ECF839EE687A20
S214012400DFED3D7A032087EE278A03F0D5FA28B35D
S2140124102F4E3A49306823F056FA21F010FA21F08F
S2140124200FFA19EE100A1CF03DFD044618EE100ACC
S2140124300D461CF037FD24A3D3E90023CDE90401A2
S21401244018EE900ACDE902231CF02CFDCDE900011F
S21401245022462B462A49306823F035FAF1EE047AF3
S214012460B4EEE78AF1EE10FA14DCF6EE007AB4EE7A
S214012470E78AF1EE10FACCBF03230123214AC2ED0D
S214012480009A214A82ED008A204A137008B0BDECFA
S214012490048B70BD0423F1E7022003F08DFA0028B7
S2140124A0F4D00B4C1A49206823F00DFA21F0C7F935
S2140124B021F0C6F91749206808B0BDEC048BBDE8C9
S2140124C0704023F000BA00BF000000203350693F7F
S2140124D0D80F00208C150400F0120400FE2504001D
S2140124E0A324040004130400F11E04005413040082
S2140124F031250400002C002099814A3B9E130400DC
S2140125005B250400D40F0020D00F002000290020F6
S214012510BF140400992504009FED1D7AC7EE007ACA
S214012520B7EE007A77EEC77A9FED1A7AF4EEC77A9D
S214012530F1EE10FA13B51FDCF5EEC07AF1EE10FAE3
S2140125401DD4FCEEE77ACDED017A9DF804404FF4F8
S2140125508070214603F03EFD601C1CF091FC024693
S2140125600B4609A1D1E900011CF01EFE1CF0D4FFA8
S21401257000EE100A02B010BDF0EE477AE1E7DFED9B
S214012580067ADEE7AFF30080000000000094914079
S21401259000A08C4400007F43000000000000000003
S2140125A09FED1F7AC7EE007AB7EE007A77EEC77A0C
S2140125B09FED1C7AF4EEC77AF1EE10FA10B523DC23
S2140125C0F5EEC07AF1EE10FA21D4FCEEE77A17EEBA
S2140125D0901A4FF488708CB2C1F3072103F0FAFC0D
S2140125E0E1B240F2111003F0F5FC601C1CF048FC4F
S2140125F002460B4608A1D1E900011CF0D5FD1CF0EE
S2140126008BFF00EE100A10BDF0EE477ADDE7DFED36
S214012610067ADAE7AFF300800000000000949140EC
S21401262000A08C4400F07F45000000000000000080
S214012630D0B51BA7D7E900672DED028B04469FEDA9
S2140126401A8AD4ED007AF4EEC87AF1EE10FA0EDAB0
S21401265013A7D7E900679FED158AD4ED007AF4EE4B
S214012660C87AF1EE10FA0ED4BDEC028BD0BD17EE8F
S214012670900A1CF017FC32463B461CF0B3FA1CF0DD
S2140126804BFF2060DDE717EE900A1CF00BFC32468C
S2140126903B461CF0A9FA1CF03FFF2060DDE700BFB7
S2140126A0182D4454FB211940DB0F4940DB0F49C06C
S2140126B02DE9F04F93B0CDE90A32DDE91C530E93B4
S2140126C053EC102BCDE90801104619468DED060B8B
S2140126D01E9E1CF0A7FE80B1DDE906014FF0FF3219
S2140126E0C54B1CF0C7FE40B9DDE906014FF0FF32CD
S2140126F06FF480131CF0A0FE70B1DDE908019DEDBA
S214012700060B0E9B1E96CDE91C53DDE90A3213B06B
S214012710BDE8F04F00F088B90022DDE9060100238C
S2140127201CF08AFE002800F03381DDE906A303F1E0
S214012730004BCBF30A5016F48063A0F2FF3008BFBB
S21401274006250F931CF09CFB9BA3D3E900231CF0EA
S21401275001FC9BA3D3E900231CF046FACBF3130438
S214012760894644F07F5180460022A44B504641F4EE
S21401277040111CF037FA94A3D3E900231CF0EAFBBE
S21401278002460B46404649461CF02EFA1CF07CFEDB
S21401279004461CF075FB8EA3D3E9002380468946C8
S2140127A01CF0D8FB0022964B1CF01EFA1CF06CFEA7
S2140127B089A3D3E900230746494640461CF0CAFBD5
S2140127C08046384689461CF05BFB85A3D3E9002387
S2140127D01CF0C0FB02460B46404649461CF002FA76
S2140127E002460B46CDE90C231CF0B4FBDDE90C23B5
S2140127F080468946104619461CF0F6F90022CDE9B6
S2140128001001804B404649461CF0CEFC00227E4B10
S2140128101CF0EAF902460B46404649461CF0C4FC49
S21401282000227A4B1CF0E0F902460B464046494628
S2140128301CF0BAFCDDE90C238046894600204FF0E7
S21401284080411CF0CFF902460B46404649461CF033
S214012850CBF902460B46DDE910011CF0A5FC07F298
S214012860FF3700226A4B1CF0BFF900223B051CF023
S21401287071FB52465B46804689461CF0FBFD0028EC
S21401288040F08980CDE90C8904F16303C72B34BF7E
S2140128900427052731051BD553A3D3E9002350464A
S2140128A059461CF0DDFD00287FD051A3D3E9002353
S2140128B0504659461CF0C0FD002876D00027A54298
S2140128C0C6BF2C1B04F1FF3500253C4646F4806646
S2140128D00E9B9F422CBF4FF00008A3EB070816F093
S2140128E0020903D0002F18BF4FF000083CB1DDE904
S2140128F00C23504659461CF057FC82468B46DDE9B0
S2140129000601002200231CF097FD10B10BF10043D5
S2140129109B46DDE9080126F40063CDE90183DDE984
S2140129200A324BEC10AB009500F07EF802465FB31E
S214012930DDE9091316F0200F00F10105089E0CBF12
S21401294065204520B047DDE90801052300220593EF
S2140129500A23002CCDE9023207F1FF374FEAD47380
S214012960B8BF64422A46019304970A9B009425F057
S214012970A2F80246B9F1000F06D00B9BC41A0B9BB6
S2140129801A190E9BA34245D8104613B0BDE8F08F26
S214012990DDE906ABCDE60022404649461A4B1CF05F
S2140129A003FC013CCDE90C016EE7002D90D00F9B96
S2140129B0002B8DD0013D8BE7FB799F501344D33F0D
S2140129C0B3C8608B288AC63F61436F63A787D23F2F
S2140129D071A379094F930A401655B5BBB16B0240F6
S2140129E0EF39FAFE422EE63F2D431CEBE2361A3F44
S2140129F00000000080842E41FFFFEF7F0000F83FBB
S214012A000000E03F00002C40000024400000184079
S214012A100000F03F2020DDE90913089DA847013496
S214012A20ADE700BF000000002DE9F04F5BEC10ABF6
S214012A3097B0CDE90501DDE92057CDE907235046DA
S214012A4052465B465946229E1CF0ECFC70B90323A5
S214012A50CDE902760193B04B0093DDE90501DDE98E
S214012A60072324F048FF17B0BDE8F08F4FF0FF3280
S214012A706FF48013504659461CF0DEFC28B104233F
S214012A80CDE902760193A54BE6E74FF0FF325046BB
S214012A905946A34B1CF0EEFC68B1A24A06F00403AB
S214012AA0002B08BF0322A04B1CBF13460422CDE90E
S214012AB002760192D0E7504693A3D3E90023594604
S214012AC01CF0D8FC38B992A3D3E9002350465946E6
S214012AD01CF0B2FC68B1DDE90723DDE905014BEC2A
S214012AE010ABCDE92176209517B0BDE8F04FFFF782
S214012AF0DFBD00220023504659461CF09DFC0028ED
S214012B0000F09A805B465246002000211CF06AF8CD
S214012B10012382468B46099316F4806400F08E806A
S214012B20092D40F28E80002430210EABA5F109025A
S214012B300134202C03F8011BA5EB040901D09442B3
S214012B40F6D1594650461CF09FFC784B054603EBE0
S214012B50C90393ED007B8DED0A7B1CF091F90246CB
S214012B600B46504659461CF03DF8DDE90A231CF099
S214012B70F1F902460B46CDE90C231CF0ADFC80466C
S214012B801CF06EF902460B46DDE90C011CF02AF832
S214012B9002460B46CDE90C230022654B1CF06AFC6D
S214012BA0002851D008F1010840461CF059F90246A8
S214012BB00B46DDE90A011CF049FC10B14FF0000894
S214012BC00135B9F1000F50D128461CF059F90246DB
S214012BD00B46504659461CF005F80022544B8046D9
S214012BE089461CF029FC30B1002240464946504B2C
S214012BF01CF040FC10B1E80700D501350A210EABE8
S214012C001A19202C0AD095FBF1F001FB105530352E
S214012C1002F8015B013405460028F2D106F00302F2
S214012C20012A57D1002F55D0099A12B916F00C0F68
S214012C3000D0013F302245E009906DE74FF00609CC
S214012C407FE7A94600247CE70022DDE90C01384B2A
S214012C501CF0F2FB0028B4D1B8F1000F02D018F036
S214012C60010FAED008F10108ABE70A210EAB2344F1
S214012C70202C0ED0B8FBF1F001FB1082B8F1090F41
S214012C8002F1300209F1FF3904F1010403F8012BC6
S214012C9011D83021A1440EAA202CAFD0A14504F1B1
S214012CA001030AD11C4609F158030DEB03092E2333
S214012CB009F8203CA2E78046DAE7A1541C46EBE778
S214012CC01A550134A74205D9202CF9D1CDE902764F
S214012CD00194C1E6202CF9D0099A3AB12D2104F1CC
S214012CE058026A4402F8201C0134EFE7710704D544
S214012CF004F158022B216A44F4E73207E6D504F1C1
S214012D00580220216A44EDE70000000065CDCD4160
S214012D100000000065CDCDC1892B04008D2B040079
S214012D20FFFFEF7F802B0400852B0400982B040007
S214012D300000E03F0000000007B588B10BA3D3E90F
S214012D4000230949C1E90223CDE900234FF0FF32F0
S214012D504FF0FF3308692AF0B1F903B05DF804FBC0
S214012D6000220023EDE700BF500B00200DD50155D2
S214012D70200000000348044B834202D0034B03B1FA
S214012D8018477047882F0020882F00200000000079
S214012D90064B0749C91A891048BF0131491003D0AB
S214012DA0044B0BB101481847704700BF882F00201D
S214012DB0882F00200000000010B5064C237843B988
S214012DC0FFF7D8FF044B13B10448AFF3008001238B
S214012DD0237010BDCA28002000000000CC6E04003D
S214012DE008B5054B1BB105490548AFF30080BDE8A2
S214012DF00840FFF7CDBF00BF00000000A80D00206F
S214012E00CC6E0400A3F5803A704700BF174B002B29
S214012E1008BF134B9D46FFF7F5FF00218B460F4673
S214012E201348144A121A2AF06AFF0E4B002B00D0E0
S214012E3098470D4B002B00D0984700200021040036
S214012E400D000D48002802D00C48AFF300801CF09E
S214012E50F3FE2000290020F043FC1CF03DFD00BFDE
S214012E60000008000000000000000000C80A002062
S214012E70C80A0020002A0020000000000000000010
S214012E8037B500281A4A1B481B4B0CBF1E22134697
S214012E904FF0000118BF1F22007814F069FD0546A7
S214012EA018B3164C1649206822F00DFD1549206806
S214012EB022F009FD20F0C3FC20F0C2FC124B134A9D
S214012EC000931349C923206822F0FDFC11492B46C3
S214012ED0114A206822F0F7FC284602F0B3FD0F499C
S214012EE0206822F0F0FC00BEFDE703B030BD00BF55
S214012EF0222F0020212F0020412F0020D80F002054
S214012F008C150400F0120400D0130400F51204001E
S214012F100413040013130400101304002813040000
S214012F2008B5074B1878B0FA80F040091870FFF71B
S214012F30A7FF044B1868BDE8084021F011BD00BF8B
S214012F40202F00203C2C002037B50120FFF798FFEA
S214012F50304B186821F0FEFC2F4B0221187814F034
S214012F601DFD044620B32D4D2D49286822F0ABFCEB
S214012F702C49286822F0A7FC20F061FC20F060FCB8
S214012F80294B2A4A00932A4940F22113286822F045
S214012F909AFC28492346284A286822F094FC2046B1
S214012FA002F050FD2549286822F08DFC00BEFDE7A1
S214012FB001234FF47A710093214A0346214802F017
S214012FC09DFD054620B3154C1549206822F07BFC73
S214012FD01449206822F077FC20F031FC20F030FC08
S214012FE0114B124A0093124940F22913206822F02D
S214012FF06AFC10492B46104A206822F064FC2846D9
S21401300002F020FD0D49206822F05DFC00BEFDE7C0
S21401301003B030BD3C2C0020212F0020D80F00200B
S2140130208C150400F0120400DD130400F5120400F0
S21401303004130400131304001013040028130400DF
S214013040212F0100C00D0020F0B58BB004AD044661
S214013050142200210B20009503AB12F011F806464E
S214013060C8B1012002F0A8FCA8B15F4F5F493868DB
S21401307022F029FC20F0E3FB20F0E2FB5C4933461A
S2140130805C4A386822F01FFC304602F0DBFC5A49E5
S214013090386822F018FC594B220ADA762846220CA8
S2140130A057491C779A762AF032FE00BB4E4C55499A
S2140130B0206822F008FC5449206822F004FC20F025
S2140130C0BEFB20F0BDFB514B514A00935149F523FD
S2140130D0206822F0F8FB504A5049206822F0F3FBA2
S2140130E02A464F49206822F0EEFB00BEFDE7A3B258
S2140130F007214C4A0BF07AFD039C294601342246EF
S21401310049484A4E2AF01CFE494B30465C7214F080
S214013110E5FB044620B3344D3A49286822F0D3FB38
S2140131203949286822F0CFFB20F089FB20F088FB84
S214013130364B374A0093374940F20513286822F088
S214013140C2FB2B4923462B4A286822F0BCFB2046AB
S21401315002F078FC3749286822F0B5FB00BEFDE78F
S214013160A022009003461146307814F0D1FB0646A3
S21401317020B31D4C2349206822F0A5FB2249206874
S21401318022F0A1FB20F05BFB20F05AFB1F4B204AEC
S214013190009320494FF48773206822F094FB14496A
S2140131A03346144A206822F08EFB304602F04AFC71
S2140131B02049206822F087FB00BEFDE7FFF7C4FE2A
S2140131C0032002F0F9FB68B1074C1B49206822F086
S2140131D07AFB20F034FB20F033FB2A46174920689F
S2140131E022F071FB0BB0F0BDD80F0020391304009C
S2140131F013130400101304008E150400412F002041
S2140132003E1304008C150400F0120400ED130400B4
S214013210F5120400041304004513040054130400BB
S2140132206C130400981304002D2F0020212F00207A
S214013230222F0020281304009E130400A313040069
S21401324037B52E4802F03CFC054620B32C4C2D49E0
S214013250206822F038FB2C49206822F034FB20F04D
S214013260EEFA20F0EDFA294B294A0093294940F25B
S2140132703113206822F027FB27492B46274A20686E
S21401328022F021FB284602F0DDFB2549206822F0CA
S2140132901AFB00BEFDE7234B187814F059FB0546D0
S2140132A020B3174C1749206822F00DFB16492068F9
S2140132B022F009FB20F0C3FA20F0C2FA134B144A9D
S2140132C0009314494FF49A73206822F0FCFA1249CD
S2140132D02B46124A206822F0F6FA284602F0B2FB84
S2140132E00F49206822F0EFFA00BEFDE70E4B186882
S2140132F003B0BDE8304021F030BB00BFC00D002058
S214013300D80F00208C150400F0120400C11304002D
S214013310F512040004130400131304001013040030
S21401332028130400212F00203C2C002037B502F082
S214013330A3F900282DD000234EF66021164A17481F
S214013340009302F0DBFB054618B3154C15492068BF
S21401335022F0B9FA1449206822F0B5FA20F06FFA83
S21401336020F06EFA114B124A00931249D0232068BE
S21401337022F0A9FA10492B46104A206822F0A3FA37
S214013380284602F05FFB0E49206822F09CFA00BE38
S214013390FDE703B030BD00BFC9360300F80D0020BD
S2140133A0D80F00208C150400F0120400EA17040060
S2140133B0FC13040004130400131304001013040088
S2140133C02813040010B5032002F0F6FA60B1094C88
S2140133D00949206822F077FA20F031FA20F030FA15
S2140133E00649206822F06FFAFEF79EFFBDE81040FE
S2140133F0FFF79CBFD80F00209E130400051404009D
S21401340030B50368904A23F47F4323F007039342C1
S21401341004468BB07AD002F18072934200F0F380BA
S2140134208A4A934270D1032002F0C6FA98B1884DB9
S2140134308849286822F047FA20F001FA20F000FABD
S214013440D4F812308449019323890093E388A28833
S214013450286822F038FA0DF11F0108A814F0C2FA04
S214013460054618B37A4C7D49206822F02CFA7C492F
S214013470206822F028FA20F0E2F920F0E1F9794BF1
S214013480794A009379499323206822F01CFA7849F7
S2140134902B46784A206822F016FA284602F0D2FA1D
S2140134A07549206822F00FFA00BEFDE7032002F0FE
S2140134B083FA20B3664C6749206822F004FA20F0AC
S2140134C0BEF920F0BDF99DF820309DF81F00049349
S2140134D09DF82130694903939DF82230684A02938A
S2140134E09DF82330002818BF0A4601939DF8243022
S2140134F06449009320689DF8253022F0E4F9089885
S21401350020F07F40FFF7A0FD0BB030BD032002F096
S21401351053FA60B14E4C4F49206822F0D4F920F09E
S2140135208EF920F08DF95849206822F0CCF9FFF782
S21401353087FE564802F0C4FA054618B3444C47497C
S214013540206822F0C0F94649206822F0BCF920F034
S21401355076F920F075F94E4B434A00934349D82338
S214013560206822F0B0F942492B46424A206822F0F0
S214013570AAF9284602F066FA3F49206822F0A3F924
S21401358000BEFDE700F09EFC80B1022002F014FAB6
S21401359060B12F4C3F49206822F095F920F04FF991
S2140135A020F04EF93C49206822F08DF902F074F9BA
S2140135B080B1022002F000FA60B1254C354920683E
S2140135C022F081F920F03BF920F03AF933492068DE
S2140135D022F079F902F0C2F980B1022002F0ECF98A
S2140135E060B11B4C2B49206822F06DF920F027F9B9
S2140135F020F026F92A49206822F065F90BB0BDE8CB
S214013600304020F00CB9032002F0D6F960B1104C1E
S2140136101049206822F057F920F011F920F010F92E
S2140136202049206822F04FF9FFF780FE00F0CCFC1D
S21401363002F07AF902F0A6F900F012FD0BB0BDE82F
S2140136403040FFF781BC00BFA0000600A0000100CB
S214013650D80F00209E1304004B1404008C150400A0
S214013660F0120400DB170400FC130400041304002A
S2140136701313040010130400281304002F1404006D
S2140136803D14040075140400AB140400F80D00206A
S214013690C7170400BF140400C4140400E81404008F
S2140136A0221504006315040038B502F0ADF804468F
S2140136B0032002F081F968B1074D0849286822F015
S2140136C002F920F0BCF820F0BBF82246044928682D
S2140136D022F0F9F8204638BDD80F00209E130400CA
S2140136E07715040070B5054600F078FC0446B8B9B5
S2140136F0032002F061F988B1204E2149306822F09A
S214013700E2F820F09CF820F09BF828681BF0CAFB32
S21401371002460B4630681B4922F0D5F8204670BD9C
S214013720112812D1032002F047F90028F6D0134DD4
S2140137301349286822F0C7F820F081F820F080F8B5
S2140137401149286822F0BFF8E8E7012002F034F9B1
S2140137500028E3D0094D0D49286822F0B4F820F07E
S2140137606EF820F06DF80A4923460A4A286822F0C6
S214013770AAF8204602F066F90749E2E7D80F0020CA
S2140137809E1304008F150400AA15040039130400C3
S2140137901313040010130400CB150400F8B50646F5
S2140137A00D4602F0CBF8044670BB032002F004F984
S2140137B088B12C4F2C49386822F085F820F03FF864
S2140137C020F03EF830681BF06DFB02460B46386869
S2140137D0264922F078F8032002F0EEF890B1214E47
S2140137E02149306822F06FF820F029F820F028F8F7
S2140137F0D5ED007AFCEEE77A1D4917EE902A30687F
S21401380022F061F82046F8BD112812D1032002F0FB
S214013810D3F80028F6D0134D1349286822F053F840
S21401382020F00DF820F00CF81249286822F04BF829
S214013830E8E7012002F0C0F80028E3D0094D0E4960
S214013840286822F040F81FF0FAFF1FF0F9FF0B4935
S21401385023460B4A286822F036F8204602F0F2F892
S2140138600849E2E7D80F00209E130400EC15040077
S214013870051604001516040039130400131304007A
S214013880101304004C160400F8B506460D4602F067
S21401389083F80446002835D1032002F08DF8A8B13C
S2140138A02F4F3049386822F00EF81FF0C8FF1FF07E
S2140138B0C7FF30681BF0D4FA00222B4B1BF074FCB8
S2140138C002460B463868294921F0FDFF032002F025
S2140138D073F8A8B1224E2349306821F0F4FF1FF097
S2140138E0AEFF1FF0ADFF28681BF0CAFA00221E4B80
S2140138F01BF05AFC02460B4630681D4921F0E3FFD7
S2140139002046F8BD112812D1032002F055F80028F0
S214013910F6D0134D1349286821F0D5FF1FF08FFF0D
S2140139201FF08EFF1349286821F0CDFFE8E701203C
S21401393002F042F80028E3D0094D0F49286821F02B
S214013940C2FF1FF07CFF1FF07BFF0C4923460C4A89
S214013950286821F0B8FF204602F074F80949E2E72A
S214013960D80F00209E13040000408F406E160400FE
S214013970861604009E16040039130400131304006F
S21401398010130400DC160400F7B506460D4600F0D9
S2140139908DFB044690BB032002F00EF898B1224F2F
S2140139A02249386821F08FFF1FF049FF1FF048FFBA
S2140139B0B6F904301E490093B6F90230B6F9002074
S2140139C0386821F080FF032001F0F6FF98B1164E0B
S2140139D01649306821F077FF1FF031FF1FF030FFE6
S2140139E0B5F9043013490093B5F90230B5F9002052
S2140139F0306821F068FF204603B0F0BD1128FAD1E7
S214013A00032001F0D9FF0028F5D0074D07492868A3
S214013A1021F059FF1FF013FF1FF012FF0649286817
S214013A2021F051FFE7E700BFD80F00209E130400E6
S214013A30FC160400181704003417040038B500F00B
S214013A404FFB0446112C4FF0030011D101F0B4FFD7
S214013A5060B1114D1149286821F035FF1FF0EFFEC6
S214013A601FF0EEFE0E49286821F02DFF204638BDD6
S214013A7001F0A2FF0028F9D0074D0849286821F077
S214013A8022FF1FF0DCFE1FF0DBFE224605492868F8
S214013A9021F019FFEAE700BFD80F00209E130400AB
S214013AA0341704006317040038B50446032001F0F8
S214013AB083FF70B31A4D1B49286821F004FF1FF0DD
S214013AC0BEFE1FF0BDFE2868D4B1174A174921F083
S214013AD0FAFE012000F0CEFA00B3022001F06CFFDE
S214013AE0E0B10F4C1249206821F0EDFE1FF0A7FE51
S214013AF01FF0A6FE20680F49BDE8384021F0E3BE5E
S214013B000D4A0A4921F0DFFE2046BDE8384000F0A4
S214013B10B1BA204600F0AEFA002CDDD138BD00BFA8
S214013B20D80F00209E130400811704008417040098
S214013B30BF140400951704009117040030B50368FC
S214013B407E4A23F47F4323F00703934289B040F073
S214013B50F380062200211820794B11F0C1FA0446A1
S214013B6018B3784D7849286821F0ADFE7749286862
S214013B7021F0A9FE1FF063FE1FF062FE744B754A2A
S214013B80009375496C23286821F09DFE73492346EE
S214013B90734A286821F097FE204601F053FF7149C9
S214013BA0286821F090FE00BEFDE70146082212209B
S214013BB06D4B11F095FA044618B3624D62492868B8
S214013BC021F081FE6149286821F07DFE1FF037FE55
S214013BD01FF036FE5E4B5F4A00935F4978232868E4
S214013BE021F071FE5D4923465D4A286821F06BFE8F
S214013BF0204601F027FF5B49286821F064FE00BEDD
S214013C00FDE7014603221620584B11F069FA0546D6
S214013C1018B34C4C4C49206821F055FE4B4920689E
S214013C2021F051FE1FF00BFE1FF00AFE484B494AD9
S214013C30009349498623206821F045FE47492B46D3
S214013C40474A206821F03FFE284601F0FBFE454921
S214013C50206821F038FE00BEFDE70DF10F0104A833
S214013C6013F0C0FE044618B3364D3749286821F0D4
S214013C702AFE3649286821F026FE1FF0E0FD1FF0D7
S214013C80DFFD334B334A009333499523286821F0EF
S214013C901AFE32492346324A286821F014FE20468D
S214013CA001F0D0FE2F49286821F00DFE00BEFDE789
S214013CB0BDF8143001465BBAADF818309DF81330E4
S214013CC008228DF81A30FF238DF81B30FE238DF85D
S214013CD01C309DF812301A208DF81D30BDF81030BA
S214013CE05BBAADF81E3006AB11F0FAF9054618B30B
S214013CF0144C1549206821F0E6FD1449206821F08E
S214013D00E2FD1FF09CFD1FF09BFD114B114A009335
S214013D101149A523206821F0D6FD10492B46104AEB
S214013D20206821F0D0FD284601F08CFE0D49206860
S214013D3021F0C9FD00BEFDE709B030BDA0000100BD
S214013D4070180400D80F00208C150400F01204002F
S214013D5030180400FF1704000413040013130400B2
S214013D6010130400281304006818040065180400E2
S214013D7008B504482DF08DF9BDE80840024803F067
S214013D8085BA00BFC8280400EC2B0020064B1B6830
S214013D901A7A022A04D812B11B68044A13607047C3
S214013DA0032AF9D0704700BF042C0020300E0020F3
S214013DB030B5204DA1B00AAC0FCD0FC495E8070071
S214013DC00023CDE901330393CDE90633CDE91D3355
S214013DD008934FF480136D4684E80700009311ACF6
S214013DE00FCD0FC4144B05AD2360144B16AC0593D1
S214013DF00FCD0FC4124B11A92360124B0AAA1B93B5
S214013E0020231C9301238DF875300F4B0F481F9309
S214013E100F4B08F0E9FB04469DF877304FF4E1308C
S214013E20002B0CBF032100211FF049FD204621B0C5
S214013E3030BD00BF881E04003400035A0100100084
S214013E403C00035ACB280020182C0020F00E00203E
S214013E50340E002029B9074B186803684BB108F0E7
S214013E60E9BF012905D1034B186803680BB121F09E
S214013E7029BF70472C2C002008B50449044809F0D6
S214013E8043F9BDE80840FFF793BF00BF302C002080
S214013E90180F0020014821F044BD00BFF00E00209D
S214013EA0014B5A6A18681047F00E0020014820F0AE
S214013EB0CFBC00BFA41E0400014820F048BD00BFCF
S214013EC0BC1E0400F0B5314B87B003AE93E8070083
S214013ED086E80700082001F0FDFE054600B32C4CDD
S214013EE02C49206821F0EFFC2B49206821F0EBFCDF
S214013EF01FF0A5FC1FF0A4FC284B294A0093294972
S214013F004023206821F0DFFC274A2849206821F059
S214013F10DAFC2A462649206821F0D5FC00BEFDE7DA
S214013F20244F386820F0E9FB044650BB3146386818
S214013F3020F05CFB044618B3154D1649286821F09D
S214013F40C2FC1549286821F0BEFC1FF078FC1FF062
S214013F5077FC124B124A009312494723286821F036
S214013F60B2FC15492346154A286821F0ACFC2046C8
S214013F7001F068FD1249286821F0A5FC00BEFDE7A6
S214013F80012520460F4B1D7007B0F0BD441F0400ED
S214013F90D80F00208C150400F0120400301F040016
S214013FA0D41E040004130400F11E0400541304007C
S214013FB0061F0400002C0020131304001013040035
S214013FC028130400EC28002008B5082001F0BCFEE8
S214013FD00022014B1A7008BDEC280020F8B51D4BD5
S214013FE02DED028B1B7805460F4616467BB31A4B02
S214013FF0024644F62061186802F066FD0446C0B920
S21401400095ED008AF0EE047AB0EEC88AB4EEE78A3F
S214014010F1EE10FA114B10D518701B783B7002F0B8
S21401402087FCB4EEC80AF1EE10FA4CBF0123002358
S21401403033702046BDEC028BF8BDF0EE0C7AB4EE80
S214014040E78AF1EE10FAC4BF01221A70E5E71124DF
S214014050EFE700BFEC280020002C0020EB28002012
S21401406008B5202001F070FE0022014B1A7008BD31
S214014070ED28002038B5054602F0C8F9044675B1AA
S21401408048B902F097F9084D38B9B1EE040A02F0C2
S214014090C3F901232B70002000E02C7038BD0128E5
S2140140A0F9D102F0ABF9F6E7ED28002038B50B4B55
S2140140B005461B780C4663B102F096FA58B102F039
S2140140C071FA284602F036FA204602F0F9F9002085
S2140140D038BD1120FCE70320FAE700BFED280020D9
S2140140E0034B1B780BB102F049BA1120704700BF91
S2140140F0ED28002030B585B000F0D8F98DF80F0016
S214014100174801221D2100780DF10F0311F03EF82A
S214014110054618B3134C1449206821F0D4FB134903
S214014120206821F0D0FB1FF08AFB1FF089FB104BA3
S214014130104A009310495F23206821F0C4FB0F4901
S2140141402B460F4A206821F0BEFB284601F07AFC78
S2140141500C49206821F0B7FB00BEFDE705B030BD75
S214014160EE280020D80F00208C150400F012040061
S214014170C01F0400501F040004130400131304009E
S214014180101304002813040030B50368AB4A23F467
S2140141907F4323F007039342044685B000F0BF80B7
S2140141A00ED8A2F18272934200F0AE8002F18072C4
S2140141B0934200F0AD80A24A934241D005B030BD93
S2140141C0A04A934200F0208102F1A0629342F5D109
S2140141D0B0F80530222BF1D14389012B40F02B8119
S2140141E0007B00F097F90022B4F80510207910F052
S2140141F0B7FF05460028E1D0934C9449206821F08A
S21401420062FB9349206821F05EFB1FF018FB1FF04C
S21401421017FB904B904A00939049B823206821F0F1
S21401422052FB8F492B468F4A206821F04CFB2846CB
S21401423001F008FC8C49206821F045FB00BEFDE733
S2140142401FF0F0FA8DF80E001FF0EEFA01228DF83D
S2140142500F00002120200DF10E0310F041FF04464F
S21401426018B3794D7949286821F02DFB78492868DB
S21401427021F029FB1FF0E3FA1FF0E2FA7B4B764AA6
S214014280009376496923286821F01DFB744923466B
S214014290744A286821F017FB204601F0D3FB7249C7
S2140142A0286821F010FB00BEFDE70146012224200C
S2140142B00DF10F0310F014FF054600283FF47EAF02
S2140142C0614C6249206821F0FEFA6149206821F0BC
S2140142D0FAFA1FF0B4FA1FF0B3FA644B5E4A009381
S2140142E05E496B23206821F0EEFA5D492B465D4A54
S2140142F0206821F0E8FA284601F0A4FB5A49206814
S21401430021F0E1FA00BEFDE7002000F003F955E7D1
S214014310002000F0FFF80022554B1A704EE7B0F867
S21401432005301D2B39D0222B7FF448AF00F0E6F87C
S21401433000220DF10F03009301928DF80F00012367
S214014340B4F80510207910F0E1FE054600283FF488
S21401435035AF3D4C3D49206821F0B5FA3C4920680F
S21401436021F0B1FA1FF06BFA1FF06AFA414B3A4A94
S21401437000933A499723206821F0A5FA38492B463D
S214014380384A206821F09FFA284601F05BFB36493F
S214014390206821F098FA00BEFDE700F087F80022B9
S2140143A00DF10F03009301928DF80F000123B4F86D
S2140143B00510207910F0AAFE054600283FF4FEAE4F
S2140143C0214C2249206821F07EFA2149206821F0FB
S2140143D07AFA1FF034FA1FF033FA274B1E4A00937D
S2140143E01E498923206821F06EFA1D492B461D4A75
S2140143F0206821F068FA284601F024FB1A49206853
S21401440021F061FA00BEFDE7B0F805301D2B7FF400
S214014410D5AEC17901297FF4D1AE0279174B1A7056
S2140144200289134B002A3FF478AF197005B0BDE836
S2140144303040FFF75FBE0D22D6E600BFA0000A019E
S214014440A0000100A0000A03D80F00208C1504006C
S214014450F0120400A71F0400501F040004130400F8
S214014460131304001013040028130400052004008D
S214014470F0280020D61F0400EE1F0400EE280020BE
S214014480034B1A781AB100221A70FFF733BE704731
S214014490EF280020034B1B7813B10122024B1A7040
S2140144A0704700BFF0280020EF2800200F4B70B5A2
S2140144B0186820F0D2F9431E5E4204464FF003000E
S2140144C05E4101F079FA70B1094D0A49286821F078
S2140144D0FAF91FF0B4F91FF0B3F923460022064992
S2140144E0286821F0F0F9304670BD00BF382C002056
S2140144F0D80F00209E1304001820040008B5044BB2
S214014500186820F030FA431E5842584108BD00BFD3
S2140145103C2C002070B5104B00F00304012C1868E9
S21401452016D120F017FA032001F046FA98B10B4D88
S2140145300B49286821F0C7F91FF081F91FF080F9AF
S214014540234628680022BDE87040064921F0BBB921
S21401455020F003FAE7E770BD3C2C0020D80F0020BE
S2140145609E1304002820040030B585B0FFF79CF8A0
S2140145708DF80F0017480122272100780DF10F034F
S21401458010F004FE054618B3134C1449206821F0B8
S2140145909AF91349206821F096F91FF050F91FF097
S2140145A04FF9104B104A009310494723206821F019
S2140145B08AF90F492B460F4A206821F084F92846CC
S2140145C001F040FA0C49206821F07DF900BEFDE7B4
S2140145D005B030BDF1280020D80F00208C1504004E
S2140145E0F01204009820040039200400041304008B
S2140145F013130400101304002813040030B50368D5
S2140146008C4A23F47F4323F007039342044685B084
S21401461031D002F10072934200F0A180A2F1017242
S21401462093422ED1844801F04BFA054648B3834C99
S2140146308349206821F047F98249206821F043F92F
S2140146401FF0FDF81FF0FCF87F4B804A009380496D
S2140146505723206821F037F97E492B467E4A206889
S21401466021F031F9284601F0EDF97C49206821F066
S2140146702AF900BEFDE7B0F80530272B03D02B2B17
S21401468037D005B030BDFFF70FF800220DF10F034C
S214014690009301928DF80F000123B4F805102079DC
S2140146A010F034FD05460028EBD0644C64492068C0
S2140146B021F009F96349206821F005F91FF0BFF8D8
S2140146C01FF0BEF8664B614A009361496523206876
S2140146D021F0F9F85F492B465F4A206821F0F3F88C
S2140146E0284601F0AFF95D49206821F0ECF800BEDC
S2140146F0FDE71EF0F3FF00220DF10F030093019278
S2140147008DF80F000123B4F80510207910F0FEFC97
S21401471005460028B5D0494C4949206821F0D3F810
S2140147204849206821F0CFF81FF089F81FF088F873
S2140147304C4B464A009346497323206821F0C3F840
S21401474044492B46444A206821F0BDF8284601F02A
S21401475079F94249206821F0B6F800BEFDE7B0F8C5
S2140147600530272B8DD1C379012B8AD13E4A017999
S21401477011700289002A32D0009342F21071002390
S2140147803A4A2D4801F0BAF9054618B32B4C2C4984
S214014790206821F098F82B49206821F094F81FF042
S2140147A04EF81FF04DF8324B284A009328498223D1
S2140147B0206821F088F827492B46274A206821F0EF
S2140147C082F8284601F03EF92449206821F07BF85A
S2140147D000BEFDE705B0BDE83040FFF7C5BE164890
S2140147E001F06EF9054600283FF44BAF134C14490F
S2140147F0206821F068F81349206821F064F81FF05A
S2140148001EF81FF01DF81A4B104A009310498A2310
S214014810206821F058F80F492B460F4A206821F0EE
S21401482052F8284601F00EF90C49206821F04BF8A1
S21401483000BEFDE7A0000A01200F0020D80F0020CF
S2140148408C150400F0120400F7200400392004003F
S21401485004130400131304001013040028130400A7
S214014860DE200400CC200400F12800202D380300AF
S214014870B020040037B5174801222E21164B0078C8
S21401488010F084FC054618B3144C1549206821F035
S2140148901AF81449206821F016F81EF0D0FF1EF011
S2140148A0CFFF114B114A009311498B23206821F049
S2140148B00AF810492B46104A206821F004F82846C9
S2140148C001F0C0F80D49206820F0FDFF00BEFDE7AD
S2140148D003B030BDF5280020622F0020D80F00203D
S2140148E08C150400F0120400B92104001121040003
S2140148F00413040013130400101304002813040007
S21401490037B5174804223121164B007810F03EFCCB
S214014910054618B3144C1549206820F0D4FF1449F5
S214014920206820F0D0FF1EF08AFF1EF089FF114B91
S214014930114A009311498023206820F0C4FF1049D2
S2140149402B46104A206820F0BEFF284601F07AF870
S2140149500D49206820F0B7FF00BEFDE703B030BD6B
S214014960F5280020580F0020D80F00208C150400D1
S214014970F01204009E210400112104000413040017
S214014980131304001013040028130400002307B5B2
S214014990019300230DF103020DF1020101A88DF828
S2140149A002308DF80330FEF79DFEA8B99DED010A91
S2140149B0DFED127A20EE270A1BF0B8F9104B1860CB
S2140149C09DF803307BB101220E4B1A7002220E4B6A
S2140149D01A7003B05DF804FB1128FAD16FF000429B
S2140149E0074B1A60EFE7074B1A78002AEED19DF8BD
S2140149F00210054B0029EBD10122E9E700007A44B9
S214014A00580F0020F2280020622F002038B50A4CEB
S214014A102578FFF7BBFF094B1B780BB1FFF770FF3B
S214014A20074B1B7833B12378AB4203D0BDE838403F
S214014A30FFF720BF38BD00BF622F0020F4280020FA
S214014A40F328002003689E4A23F47F4323F00703DC
S214014A50934273B5044600F0D88009D8A2F10172DA
S214014A60934243D002F5802293426DD002B070BDCE
S214014A70944A9342FAD1B0F80530342BF6D14389E3
S214014A80022B40F07C818389012B14BF132600265C
S214014A9032463421207910F063FB0546002800F0E9
S214014AA07081894C8949206820F00DFF884920686B
S214014AB020F009FF1EF0C3FE1EF0C2FE854B864A9B
S214014AC0009386494FF48373206820F0FCFE8449E6
S214014AD02B46844A206820F0F6FE284600F0B2FFF6
S214014AE08149206820F0EFFE00BEFDE77F4800F018
S214014AF0E7FF044618B3744D7449286820F0E3FEB6
S214014B007349286820F0DFFE1EF099FE1EF098FE1D
S214014B10774B714A00937149A423286820F0D3FE8D
S214014B206F4923466F4A286820F0CDFE204600F0E4
S214014B3089FF6D49286820F0C6FE00BEFDE76D4B73
S214014B4018706D4B187091E7B0F80530312B01D015
S214014B502E2B8BD1FFF71AFFB4F805102E2921D082
S214014B6031294FD0584C5949206820F0ACFE58499D
S214014B70206820F0A8FE1EF062FE1EF061FE5F4B6C
S214014B80554A00935549BC23206820F09CFE5C4999
S214014B905C4A206820F097FE5B49206820F093FE6F
S214014BA000BEFDE7012359480022CDE90002207925
S214014BB010F0ACFA054600283FF458AF424C434982
S214014BC0206820F080FE4249206820F07CFE1EF01E
S214014BD036FE1EF035FE494B3F4A00933F49C62339
S214014BE0206820F070FE3E492B463E4A206820F0A1
S214014BF06AFE284600F026FF3B49206820F063FE47
S214014C0000BEFDE704234248CEE7C379012B7FF4BB
S214014C102DAFB0F80530312B44D1038901793D4AD7
S214014C203D4C1170191E18BF0121324A117013B183
S214014C30FFF7ACFEA0472F4B1B781BB92E4B1B78FA
S214014C40002B71D00123FA210093344A0023274810
S214014C5000F054FF054600283FF408AF1A4C1B49E4
S214014C60206820F030FE1A49206820F02CFE1EF045
S214014C70E6FD1EF0E5FD2A4B174A00931749ED2382
S214014C80206820F020FE16492B46164A206820F0A0
S214014C901AFE284600F0D6FE1349206820F013FEBF
S214014CA000BEFDE72E2B7FF4E1AE03890179194A98
S214014CB01C4C1170191E18BF01210F4A1170B6E75E
S214014CC0A0000A03A0000A08D80F00208C150400D3
S214014CD0F01204008B2104001121040004130400C7
S214014CE01313040010130400281304005C0F0020A3
S214014CF0F9210400F4280020F3280020E72104000D
S214014D00541304006A21040070210400622F00205D
S214014D10580F0020F5280020014901000D4A010026
S214014D20CB210400754801001E4800F0C9FE054667
S214014D3000283FF49BAE1C4C1C49206820F0C3FDA4
S214014D401B49206820F0BFFD1EF079FD1EF078FD9E
S214014D50184B194A00931949F023206820F0B3FD37
S214014D6017492B46174A206820F0ADFD284600F06B
S214014D7069FE1549206820F0A6FD00BEFDE70D2658
S214014D8086E6002E7FF472AE104B1E70FFF7FEFD16
S214014D900F4B1B78002B3FF469AE02B0BDE87040A4
S214014DA0FFF768BD5C0F0020D80F00208C150400AB
S214014DB0F0120400CB2104001121040004130400A6
S214014DC0131304001013040028130400F228002013
S214014DD0F3280020102337B58DF80430214B224DDF
S214014DE01B788DF80530214B1B788DF806302B7813
S214014DF0012B22D0022B22D0D3B91D4803223D21FC
S214014E00007801AB10F0DAF9044698B1012000F001
S214014E10D3FD68B1174D1849286820F054FD1EF0DF
S214014E200EFD1EF00DFD22461449286820F04BFDAC
S214014E3003B030BD01232B70FAE70223FBE7012004
S214014E4000F0BAFD0028F3D00A4C0B49206820F088
S214014E503AFD1EF0F4FC1EF0F3FC0949206820F030
S214014E6032FDE5E7F8280020F6280020F728002084
S214014E70FD280020D80F0020391304001322040057
S214014E804A22040038B52A4B1B78002B4ED0294CF9
S214014E90294D21462846FEF777FD48B1112845D110
S214014EA047F6FF732B8023806B806380AB80A380E3
S214014EB0224B1B78D3B12248062237211D4B00789E
S214014EC010F064F9044688B1012000F075FD68B160
S214014ED01C4D1D49286820F0F6FC1EF0B0FC1EF0A3
S214014EE0AFFC22461949286820F0EDFC184B1B78C8
S214014EF0E3B1134806223A210F4B007810F046F929
S214014F00044698B1012000F057FD78B10D4D0E49C9
S214014F10286820F0D8FC1EF092FC1EF091FC224678
S214014F2028680A49BDE8384020F0CDBC38BD00BF2E
S214014F30FC2800208E28002088280020FB2800203E
S214014F40FD280020D80F0020391304007622040023
S214014F50FA280020084908B50978084B1A7849B993
S214014F600749087800F001009042187001D0FEF75A
S214014F709BFD08BD0120F5E7FB280020FC2800204A
S214014F80FA2800200368564A23F47F4323F00703D8
S214014F90934273B5044614D002F1A062934248D0FE
S214014FA0504A934243D100234F4A13704F4A13701D
S214014FB04F4A13704F4A137002B0BDE87040FFF7B6
S214014FC0C9BFC379012B22D1B0F80530372B08D1E0
S214014FD00389494A0179003B117018BF0123424AEF
S214014FE0E9E73A2B0AD03D2B21D10389424A0179C0
S214014FF0003B117018BF01233D4ADCE703893E4A96
S2140150000179003B117018BF0123384AD3E7022B00
S2140150100DD1B0F805303D2B09D1364C2378022B43
S21401502003D100232370FFF7D5FE0023237002B0BF
S21401503070BDB0F805303D2BF9D14389012B44D121
S2140150402B4B1B78002B42D0057B2C4B2C4E1D7016
S21401505002239D42337035D0642D33D0012D02D109
S214015060FEF7ECFC60B300263246B4F80510207952
S21401507010F076F8054660B3224C2349206820F0EC
S21401508022FC2249206820F01EFC1EF0D8FB1EF0F0
S214015090D7FB1F4B1F4A00931F49DE23206820F0D1
S2140150A012FC1E492B461E4A206820F00CFC28469E
S2140150B000F0C8FC1B49206820F005FC00BEFDE797
S2140150C03570D0E701233370CDE70D26CCE7812676
S2140150D0CAE7002EABD102B0BDE87040FFF77ABE3A
S2140150E0A0000A03A0000601FB280020FA280020E1
S2140150F0F9280020F6280020FD280020F8280020A6
S214015100F7280020D80F00208C150400F0120400A8
S21401511006230400AF220400041304001313040042
S214015120101304002813040007B5684601A9FEF70A
S21401513035FBA8B9DDED007A9FED0D7A67EE877A2B
S214015140FCEEE77A0B4BC3ED007ADDED017AFCEE5F
S214015150E77A17EE903A084A137003B05DF804FB3D
S2140151601128FAD14FF0FF33024A1360F3E700BF6C
S2140151700000C842940F0020FE280020036837B5BF
S21401518023F47F43394A23F00703934204466AD146
S214015190B0F80530432B32D1FFF7C6FF0022344B5F
S2140151A001920093B4F80510042320790FF0AEFFA6
S2140151B00546002857D02F4C2F49206820F083FB46
S2140151C02E49206820F07FFB1EF039FB1EF038FBCD
S2140151D02B4B2C4A00932C495723206820F073FB55
S2140151E02A492B462A4A206820F06DFB284600F003
S2140151F029FC2849206820F066FB00BEFDE7412B0C
S21401520031D1FFF791FF0022234B01920093B4F8AE
S2140152100510012320790FF079FF054618B3154CC8
S2140152201549206820F04FFB1449206820F04BFBFD
S2140152301EF005FB1EF004FB184B124A00931249A0
S2140152406823206820F03FFB10492B46104A20684F
S21401525020F039FB284600F0F5FB0E49206820F0C7
S21401526032FB00BEFDE703B030BD00BFA0000A015F
S214015270940F0020D80F00208C150400F0120400B3
S21401528089230400182304000413040013130400E4
S2140152901013040028130400FE28002073230400C2
S2140152A007B5684601A9FEF7EFFA68B90A22009B1E
S2140152B00B49B3FBF2F30B80019B93FBF2F3094A14
S2140152C0138003B05DF804FB1128FAD14FF6FF7284
S2140152D0034B1A8047F6FF72024B1A80F1E700BFB4
S2140152E0CE2E0020CC2E0020036837B523F47F4352
S2140152F0394A23F00703934204466AD1B0F80530D1
S214015300452B32D1FFF7CCFF0022344B019200939C
S214015310B4F80510022320790FF0F8FE05460028A0
S21401532057D02F4C2F49206820F0CDFA2E492068FF
S21401533020F0C9FA1EF083FA1EF082FA2B4B2C4A93
S21401534000932C496823206820F0BDFA2A492B4691
S2140153502A4A206820F0B7FA284600F073FB28494D
S214015360206820F0B0FA00BEFDE7472B31D1FFF7E9
S21401537097FF0022234B01920093B4F805100223F5
S21401538020790FF0C3FE054618B3154C1549206861
S21401539020F099FA1449206820F095FA1EF04FFA89
S2140153A01EF04EFA184B124A0093124957232068F2
S2140153B020F089FA10492B46104A206820F083FA1B
S2140153C0284600F03FFB0E49206820F07CFA00BE1C
S2140153D0FDE703B030BD00BFA0000A01CC2E0020BF
S2140153E0D80F00208C150400F012040011240400CC
S2140153F0A52304000413040013130400101304006F
S21401540028130400CE2E0020FC230400044B834204
S21401541005D1044B1B7813B1C8B212F0D3BA70474A
S214015420980F0020FF28002030B5002503685A4A4F
S21401543023F47F4323F0070385B093420446029585
S214015440ADF80C5000F0828002F1C06202F58022B5
S21401545093420DD0514A934240F09C80504B1B78AA
S214015460002B00F0978005B0BDE8304020F0BEBFAD
S214015470B0F805304A2B40F08D80FF2304A91A4668
S21401548011E903001EF0D4F9012814BF41F2FC15FE
S214015490434B05F0FC0208BF18704A2120790FF033
S2140154A05FFE054618B33F4C3F49206820F00BFAD3
S2140154B03E49206820F007FA1EF0C1F91EF0C0F937
S2140154C03B4B3C4A00933C495923206820F0FBF9AA
S2140154D03A492B463A4A206820F0F5F9284600F06A
S2140154E0B1FA3849206820F0EEF900BEFDE73649EA
S2140154F000902379354A0968354800F0FFFA0546D9
S214015500002847D0274C2849206820F0DCF9274995
S214015510206820F0D8F91EF092F91EF091F9244B7C
S214015520244A009324496223206820F0CCF92349B9
S2140155302B46234A206820F0C6F9284600F082FA56
S2140155402049206820F0BFF900BEFDE7B0F805301D
S214015550B7EE047A07EE903AF8EE677AB0F80730BD
S21401556067EE877A013307EE103AB8EEC77A67EE30
S214015570877AB1EE047A67EE877AFAFE677AFCEEEE
S214015580E77A17EE903AB3F57A7F38BF4FF47A731D
S2140155900D4A136005B030BDA0000602A00006014A
S2140155A0FF280020D80F00208C150400F0120400FC
S2140155B083240400292404000413040013130400A4
S2140155C01013040028130400402C00200D54010081
S2140155D0980F0020012330B589B0ADF81430ADF82E
S2140155E01C30174B174A04900691186803A90392BA
S2140155F001F0AEFE054600B3134C1449206820F0B6
S21401560062F91349206820F05EF91EF018F91EF0C1
S21401561017F9104B104A00931049EB23206820F02D
S21401562052F90F4A0F49206820F04DF92A460E49D3
S214015630206820F048F900BEFDE709B030BD00BF84
S214015640002C002080000800D80F00208C150400D4
S214015650F0120400ED250400A32404000413040042
S214015660F22404005413040009250400014B1878A1
S214015670704700BF00290020024B1878031F5842CC
S2140156805841704700290020F0B54E4D93B008AC44
S21401569006460FCD0FC40FCD00270FC495E80300B3
S2140156A00323CDE903778DF80E30012384E8030048
S2140156B04548CDE90577079702932BF0EAFC0546A6
S2140156C018B3424C4249206820F0FDF84149206851
S2140156D020F0F9F81EF0B3F81EF0B2F83E4B3F4A40
S2140156E000933F49B323206820F0EDF83D492B464F
S2140156F03D4A206820F0E7F8284600F0A3F93B4928
S214015700206820F0E0F800BEFDE739482BF0C1FC28
S214015710044618B32D4D2E49286820F0D4F82D499B
S214015720286820F0D0F81EF08AF81EF089F82A4B77
S2140157302A4A00932A49B523286820F0C4F8294943
S2140157402346294A286820F0BEF8204600F07AF958
S2140157502649286820F0B7F800BEFDE7254883688B
S2140157601BB908AA05A905F005F81023214802AAC5
S21401577003A98DF809301FF0FAFE4FF400719FED72
S2140157801E0A01259FED1D7A1D4B1A4A1D48996276
S214015790B44207D107EE904AF8EE677A80EE270A00
S2140157A013B0F0BD4162D560536A9B05FCD5D36F3B
S2140157B001349BB207EE903AF8EE677A07EE870A55
S2140157C0E6E700BF14260400BC280400D80F00201A
S2140157D08C150400F0120400E4250400A324040040
S2140157E00413040013130400101304002813040008
S2140157F0B42804000040005A00000000F7EA9A3A74
S2140158000050005A0060005A08B50120FFF73CFF1F
S214015810204BD3ED007AB4EEE70AF1EE10FA01DB85
S214015820187908BDD3ED0E7AB4EEE70AF1EE10FA58
S21401583002D893F83C00F4E70022D3ED007AB4EEE8
S214015840E70AF1EE10FA1DD5D3ED026AB4EEE60AC8
S214015850F1EE10FA16DB1A7B1B7930EE660A9B1AFC
S21401586007EE103AB8EEC77A77EEE66A27EE007AC8
S214015870C7EE267AFCEEE77A17EE900A52FA80F027
S214015880C0B2CEE70132072A03F10803D5D10020C2
S214015890C7E700BF442C002037B5022000F01AFAF3
S2140158A0054600B3154C1649206820F00CF815493A
S2140158B0206820F008F81DF0C2FF1DF0C1FF124B52
S2140158C0124A00931249322320681FF0FCFF114A46
S2140158D0114920681FF0F7FF2A46104920681FF07B
S2140158E0F2FF00BEFDE70E4B18681EF0B3FCB0FADF
S2140158F080F30C4A5B09137003B030BDD80F00204B
S2140159008C150400F0120400B42604003C260400A2
S21401591004130400F11E0400541304008B26040033
S214015920002C00200129002008B5022000F00CFA06
S2140159300022014B1A7008BD01290020054B0A46BA
S2140159401B7823B1044B0146186800F0ABBF112049
S214015950704700BF01290020002C002008B5012057
S21401596000F0B8F9054B402118681EF091FDB0FA19
S21401597080F3034A5B09137008BD00BF002C0020AA
S2140159800229002008B5012000F0DEF90022014BB3
S2140159901A7008BD022900200B46054902460978FF
S2140159A021B10448402100681EF028BD112070472F
S2140159B002290020002C00200B4B02461B7883B1E5
S2140159C00A4B1B78834234BF00200120084B1B780A
S2140159D033B1084B1B78134113F0010F08BF0020A9
S2140159E070470120F2E700BF652F0020642F0020DA
S2140159F003290020632F0020012208B5074B1A70E7
S214015A000022074B1A700422064B1A701F22064BFF
S214015A101A7006F051FD054B186008BD652F002071
S214015A2003290020642F0020632F0020D80F0020B8
S214015A30024B034918681FF046BF00BFD80F00206D
S214015A40C926040070B50C4C0C49064620681FF0A8
S214015A503AFF06F031FD0546206806F021FD304686
S214015A60FFF7E6FF284606F01BFD20680449BDE85F
S214015A7070401FF028BF00BFD80F0020CB260400BF
S214015A80CD26040038B505462BF022FA00230B4A32
S214015A9014685CB1AC4206D1A96A6BB199622BF06D
S214015AA012FA012007E02346A46AF2E7002DF3D09C
S214015AB02BF009FA204638BD1160F0E7DC0F002014
S214015AC010B50446B0B12AF061FF2046FFF7DAFFB1
S214015AD010B194F82C300BB9002010BD064C236889
S214015AE0002BF9D02BF0F4F92368013B23602BF04F
S214015AF0EAF9F1E72220F0E7E00F00202DE9F04374
S214015B0085B00546914698460E469DF8307009B90F
S214015B10002F5CD12846FFF7D3FF0446002836D174
S214015B2085F82C00686307F0F5FC864233D92AF025
S214015B30C1FF2146844640F2E7304FF47A720023D3
S214015B40E6FB0C0119F038FD4FF0FF32002319F087
S214015B5033FD2B46E88611462846CDE900441D4A0A
S214015B602BF05AFB044690B9C5E9089885F82D70C4
S214015B702E632BF0ADF9184A136833B31A469B6AA5
S214015B80002BFBD195620023AB622BF09CF92046DB
S214015B9005B0BDE8F08347B12B4631462846CDE92E
S214015BA000440C4A2AF0EAFFDCE7304603A92AF053
S214015BB099FF04460028EAD12B462846CDE900770E
S214015BC0044A03992BF004FBCCE71560DBE721249C
S214015BD0DDE700BFDD5B0100DC0F002091F82C3013
S214015BE013B50C4683B98B8ECA8E93420ED243B937
S214015BF0CDE9003320460B46124A4FF0FF312BF019
S214015C00CBFAA38E0133A38602B010BD52B191F830
S214015C102D3093B101230093D1E908232046096B67
S214015C20FFF76CFF012384F82C30074B1A6801320A
S214015C301EBF1A6801321A60E6E708462AF0A6FE79
S214015C40F0E700BFDD5B0100E00F00202DE9F04129
S214015C50154E336833B34FF00008144F2BF038F964
S214015C6005463C6824B92846BDE8F0412BF02BB91F
S214015C7094F82C30A3B1336884F82C8013B13368C0
S214015C80013B336094F82D3013B92046FFF7FAFE36
S214015C9028462BF018F9D4E9083120469847DDE765
S214015CA0A46ADFE7BDE8F081E00F0020DC0F0020EA
S214015CB0034B1B68002B14BF04200120704700BF54
S214015CC0E00F0020024B1868B0FA80F040097047D8
S214015CD0E00F00207FB54FF48063ADF80430ADF8D7
S214015CE00830ADF80C30174B08281B880246ADF873
S214015CF010304FF00003ADF814301BD007DC01283C
S214015D000DD0022812D00E2007B05DF804FB202823
S214015D1014D04028F7D10122042105A802E004216D
S214015D200DEB010001F0D4F80020EDE7012204217B
S214015D3002A8F7E70122042103A8F3E701220421C0
S214015D4004A8EFE7D02604007FB54FF48063002255
S214015D50ADF80430ADF80830ADF80C30134B082818
S214015D601B88ADF81420ADF8103019D007DC0128D7
S214015D700CD0022811D00E2007B05DF804FB2028B5
S214015D8011D04028F7D1042105A802E004210DEB2B
S214015D90010001F09DF80020EEE7042102A8F8E7D3
S214015DA0042103A8F5E7042104A8F2E7D02604009D
S214015DB008B506482BF06DF91DF0D1FC0120FFF760
S214015DC089FFBDE8084000F039BC00BFC8280400C0
S214015DD001482BF05EB900BFC828040007B50820AB
S214015DE01EF09EFD0222064B6846CDE900231DF0FB
S214015DF02AFD082003B05DF804EB1EF09CBD00BF31
S214015E00006A181007B5074B1B88ADF8043028B197
S214015E1001A801F0BDF803B05DF804FB01A801F08C
S214015E208BF8F8E7D4260400022330B52B4C8DB04E
S214015E30ADF80430638805ADADF80830A388ADF839
S214015E400C3034F8083BADF810300FCC0FC594E891
S214015E5007000124224B85E80700224807938DF8A6
S214015E6022402BF016F920482BF013F904210022CA
S214015E700DEB010001F02CF82146002202A801F0EA
S214015E8027F80022042103A801F022F82246174C25
S214015E90042104A801F01CF8204604F09FFF2046C8
S214015EA005A904F0C3FF1C220020114BC3F81C26D1
S214015EB0D3F8342642F00202C3F83426D3F82C264F
S214015EC042F4803242F00202C3F82C26D3F8302680
S214015ED042F00212C3F830260DB030BDD4260400BD
S214015EE0A05A3200AC280400C828040000C005509F
S214015EF000C0035038B504460C4D0120FFF782FF61
S214015F007F2128461FF08EFB28461FF07BFB2101D0
S214015F10284601F0F0011FF085FB28461FF072FBB2
S214015F20BDE838400020FFF76DBF00BF00C0055038
S214015F3070B50546C0F3C71014460E4665F07F05DA
S214015F40FFF7D8FF0120FFF75DFFE9B20C481FF00D
S214015F5069FB0B481FF056FB094D2644B44204D199
S214015F60BDE870400020FFF74DBF002128461FF016
S214015F7059FB28461FF046FB04F8010BEEE700BF6D
S214015F8000C0055013B50446012140F201100DF181
S214015F900702FFF7CDFF9DF8073003F00603062B37
S214015FA007D8DFE803F0040609060B060D00054BCB
S214015FB02360002002B010BD034BF9E7034BF7E75F
S214015FC0034BF5E70000FA3B00007A3C0000FA3C80
S214015FD000007A3D70B505460E460E4CC0F3C7105C
S214015FE0FFF788FF0120FFF70DFF05F07F01204630
S214015FF01FF018FB20461FF005FB314620461FF018
S21401600011FB20461FF0FEFABDE870400020FFF7A6
S214016010F9BE00BF00C0055001212DE9F043002262
S21401602085B0804608461DF0BBFD9FED770A1DF042
S2140160305AFD29201DF066FD00201DF03DFD684635
S214016040FFF7A0FF322007F049FA40210320FFF7AF
S214016050C1FF0F216920FFF7BDFF0E216720FFF763
S214016060B9FF0F216820FFF7B5FF00216820FFF771
S214016070B1FF40210320FFF7ADFF052007F02EFA00
S2140160800221702001AAFFF753FFBDF804305BBA66
S2140160909BB2B3F57F6FF0D300216720FFF79AFF1D
S2140160A00221702001AAFFF743FF4FF000090C23DD
S2140160B0BDF804704C467FBABFB2B7FBF3F74D4646
S2140160C04E461FFA89F3BB42C0F0818096FBF7F675
S2140160D007EE906A9DED007AF8EEE77A95FBF7F504
S2140160E067EE877AC8ED007A07EE905AF8EEE77AFF
S2140160F094FBF7F467EE877AC8ED017A07EE904ACB
S214016100F8EEE77A67EE877A01AAC8ED027A0221ED
S21401611040F20310FFF70CFF9DF904309DF805804F
S21401612001AA022140F2051048EA0328FFF700FF02
S2140161309DF904309DF8057001AA022140F207106E
S21401614047EA0327FFF7F4FE002E9DF904209DF889
S2140161500530B8BF0336002DA8EBA606B8BF033539
S214016160002C43EA0223B8BF0334C6F3072140F2EA
S2140161700310A3EBA404A7EBA505FFF72BFFF1B2D1
S2140161804FF48270FFF726FFC5F3072140F2051092
S214016190FFF720FFE9B24FF48370FFF71BFFC4F34C
S2140161A0072140F20710FFF715FFE1B24FF48470A4
S2140161B0FFF710FF00210320FFF70CFF0022114616
S2140161C010461DF0EDFC002005B0BDE8F08301AAE5
S2140161D00C217220FFF7ACFE9DF90A209DF80B30CA
S2140161E009F1010943EA02231E449DF90C209DF89A
S2140161F00D3043EA02231D449DF90E209DF80F3011
S21401620043EA02231C445CE700808944B7EE007A27
S214016210C7EE007A9FED057AC0ED157AC7EE007AD3
S21401622080ED140AC0ED167A704700BF35FA8E3C31
S214016230F0B52DED048B0F4600F15C050446D0ED5C
S214016240098A90ED0A9AD0ED0B9A85B02846164633
S214016250B0EE408A1DF071FE002F48D094ED097A09
S214016260DFED386AB4EEE67AF1EE10FA3FDBDFEDE9
S214016270367AB4EEE77AF1EE10FA38D894ED0A7A67
S214016280B4EEE67AF1EE10FA31DBB4EEE77AF1EE2F
S21401629010FA2CD8F5EEC09AF1EE10FAF1EE688AF3
S2140162A0B1EE490A04F1680725DB19F003FD8DED0F
S2140162B0010AB0EE680A19F0FDFCB1EE400A284664
S2140162C03A4601A98DED020A8DED038A1DF06DFE99
S2140162D028461DF025FE0EB900236366D4ED147A18
S2140162E0B6EE000A284680EE270A1DF03EFE05B0EF
S2140162F0BDEC048BF0BD19F0DDFC9FED149A39EE70
S214016300400A8DED010AB0EE680A19F0D3FC38EEAA
S214016310098AB1EE400A01A88DED020A8DED038AC5
S2140163201DF0FEFD3A46284601A91DF03EFE284610
S2140163301DF0F6FDD4ED187AF1EE677AC4ED187A01
S214016340C9E700BFDA1B7CBFDA1B7C3FDB0F494085
S21401635070B5044600F05AF80128054626D104F126
S2140163602406304600F024F93146204604F144065E
S2140163701DF05FFD304600F029F9D4ED117AF1EEFB
S214016380677AC4ED117AD4ED127AF1EE677A314666
S2140163902046C4ED127A1DF068FD29462046BDE868
S2140163A070409FED030A0022FFF742BF70BD00BF99
S2140163B0000000007FB502250E4E0F4835701DF017
S2140163C016FD1DF03CFB044660B90DF103001DF0FF
S2140163D024FB044630B9032301A83370FFF71CFEE3
S2140163E0044610B11DF079FA00252046357004B038
S2140163F070BD00BF04290020E40F00200022024BDC
S2140164001A701DF06ABA00BF04290020014B1878E3
S214016410704700BF04290020F0B501212DED028B45
S2140164200223B0EE408A224D83B0002208462B702C
S2140164301DF0B6FBB0EE480AFCF76EF81D4E1E4F77
S21401644086ED000AB0EE480AFCF7AAF8002087EDB0
S214016450000A1DF06EFB19201DF054FB00201DF0F4
S21401646014FB00201DF028FB322007F037F800212E
S21401647001201DF0E8FB0121002208460F4C1DF00B
S214016480B2FB01A81DF0AFFA97ED000A20461DF0F9
S214016490CDFC96ED000A2046FFF7B8FE20461DF01B
S2140164A000FD01232B7003B0BDEC028BF0BD00BFD5
S2140164B0042900206410002060100020E40F002052
S2140164C01A4AD36B6BB392ED0C6A9FED197A07EEFD
S2140164D0903A26EE076AF8EE677AC6EE276A92EDDC
S2140164E00D6AFDEEE66A26EE076A16EE903AC6EEED
S2140164F0276AFDEEE66A038016EE903AD2ED0E6A42
S21401650066EE876A86EEA77ABDEEC77A438017EEF7
S214016510103A838000231363536393630023D3638A
S2140165207047038043808380704700BFE40F0020DC
S21401653000007A440F4B9FED107AD3ED1A7A67EE7E
S214016540877AFDEEE77A17EE902AD3ED1B7A67EE8F
S214016550877AFDEEE77A028017EE902AD3ED1C7A51
S21401656067EE877AFDEEE77A17EE903A42808380EF
S214016570704700BFE40F0020A00CB345002110B502
S21401658008461DF060FBFFF739FFFFF713FF0446CF
S214016590034B93ED000AFFF73FFF204610BD00BFF7
S2140165A0641000200148FFF7D3BE00BFE40F0020AF
S2140165B0054A1278012A04D00022026042608260F5
S2140165C070471DF0B0B900BF04290020054A1278B3
S2140165D0012A04D0002202604260826070471DF0EA
S2140165E0D2B900BF0429002008B5094B1B78012B3E
S2140165F001D0002008BD1DF002FA064A13680133D7
S21401660013600028F5D0044A136801331360F1E7DC
S214016610042900205C100020581000209FED060A77
S21401662000F10C03B0EC017AF1EC017A984207EE26
S214016630270AF7D1704700BF000000002DE9F0439C
S214016640494E4FF0020935468DB005AC0FCD0FC44B
S21401665095E807000125B38BDFF82081ADF80430FB
S214016660F38B368C84E807004048414FADF808307C
S214016670ADF80090ADF80C602AF00BFD40462AF00C
S21401668008FD3C4B384605A907938DF8225004F0C7
S214016690CDFB2A460421684600F01AFC2946002252
S2140166A001A800F015FC2A46042102A800F010FCFF
S2140166B02A46042103A800F00BFC4FF002132E4CCF
S2140166C04FF44870C4F83036A3F58033C4F82C363E
S2140166D01C23C4F83496C4F81C3606F077FF04A8C9
S2140166E0ADF8106000F054FC142006F06FFF04A80B
S2140166F0ADF8106000F020FC232006F067FF04A828
S214016700ADF8106000F044FCB92138461EF080FF59
S21401671004A8ADF8106000F00FFC00226846114690
S21401672000F0D6FB002201A8114600F0D1FB2A4654
S214016730002102A800F0CCFB2A46002103A800F0A5
S214016740C7FB384604F04AFB00234046C4F81C3613
S214016750C4F83036C4F82C36C4F834362AF09CFC1B
S2140167600DB0BDE8F08300BFF8260400C828040079
S21401677000C0055000127A0000C00350AC28040087
S214016780B0F57A5F13B50C46114602DCB2F57A5FB6
S21401679007DD074B0722009304231DF03EFC02B0E1
S2140167A010BD044B0F22009320460923F5E700BFD6
S2140167B0D82E0020E82E002010B50B4B86B0019392
S2140167C001238DF8001001A91446CDF808D0ADF8C4
S2140167D00C300492ADF8143000F0BAFD10B1FF236E
S2140167E03120237006B010BDAA00040000B50D4B81
S2140167F089B0039302AB04930223ADF8143001ABC6
S214016800069300238DF8081003A98DF80920ADF82A
S2140168101C3000F09DFD002814BF3120002009B077
S2140168205DF804FBAA00010030B505460F488BB0A1
S21401683005908DF808100DF109001946144627F049
S2140168407FFA02AB069301AB089300230134284676
S214016850E4B205A9ADF81C40ADF8243000F078FD8F
S214016860002814BF312000200BB030BDAA00010063
S21401687010B586B08DF800100121094CADF80C104A
S21401688001A90194CDF808D00493ADF8142000F0C6
S2140168905FFD002814BF3120002006B010BD00BFE8
S2140168A0AA0004002DE9F04188B005460F461646B9
S2140168B01DF090FC0446C82006F010FE1221284662
S2140168C00DF10B02FFF778FF9DF80B800444B8F139
S2140168D00F0F26D103A928461DF01EFDDDE906216E
S2140168E00598FFF74DFF07EE900A9FED0F7AF8EE39
S2140168F0E77A67EE877A0D4BC7ED007A424600933A
S2140169000499022300201DF088FB07EE900AF8EE9A
S214016910E77A204667EE877AC6ED007A08B0BDE8CA
S214016920F0810520C8E700BF00008039D02E002086
S2140169309FED010A704700BFC3F59E419FED107A97
S214016940C0EE077AFDEEE77A17EE903A002B15D0E7
S2140169501A464FF00000B8BF03F10F02C2F3071248
S214016960012A07D101098A4093FBF2F3103B184331
S214016970C0B2704710305208C0B2F1E77F207047AE
S2140169800AD7A33B9FED147AC0EE077AB6EE007ADB
S21401699077EE877AFDEEE77A17EE903A10B10A2283
S2140169A093FBF2F3B3B1B3F5E06FA8BF4FF4E06326
S2140169B0082BB8BF08230020C3F3C702012A05D15C
S2140169C0C2081341083B1843C0B27047083052084A
S2140169D0C0B2F3E73F2070470AD7A33B00B50C4B84
S2140169E089B0039301238DF80710ADF81430ADF884
S2140169F01C3003A90DF107030493069200F0A8FCCE
S214016A00002814BF3120002009B05DF804FB00BF48
S214016A106000040000B50E4B89B003930123ADF866
S214016A201430ADF81C300DF107038DF807100493F0
S214016A3003A90DF106038DF80620069300F088FCE5
S214016A40002814BF3120002009B05DF804FB00BF08
S214016A50600008007FB527240E4B054618689B8802
S214016A600290ADF80C3002AE2146284601340DF1F5
S214016A700702E4B21DF06DFD48B928469DF80720CF
S214016A8016F8011BFFF7C6FF08B92D2CECD104B090
S214016A9070BD00BF1A270400002310B5094A86B04E
S214016AA001A9CDE90123ADF80C3000F051FC0446F4
S214016AB028B90A2006F08AFD204606B010BD31200E
S214016AC0FBE700BF6000010045F2140313B59942CD
S214016AD0144694BF0021012101AA1DF027FEDDED19
S214016AE0017ADFED056AF8EEE77A87EEA67A84ED9D
S214016AF0007A02B010BD00BF00007A440348044A81
S214016B000449121A92101DF074BE00BF4021010004
S214016B1020230100002A002008B5154B83F30A88BC
S214016B2000F030F8FFF7EAFF124B13498B4212D3FD
S214016B300020124B12498B4218D3FCF767F91868EC
S214016B4050F82240586840F8224001329868824244
S214016B50F5D30C33EAE70022F8E71C6844F8220074
S214016B6001325C68A242F8D30833E4E70022F8E772
S214016B7008000020D46E0400E06E0400E06E0400FD
S214016B80E06E04004FF40041134B144A70B59A604E
S214016B90D3F88820124D42F47002C3F88820114AB7
S214016BA005F5005491664FF0FF3222664FF6DF720C
S214016BB062660222C3F8D020BFF34F8FBFF36F8FF8
S214016BC04FF44036032005F05DFC0320E66005F037
S214016BD03DFC2E6170BD00BF00ED00E0002001000D
S214016BE00080004400900050014B1860704700BFC1
S214016BF0882C0020054B1860054B1B6F03F007031C
S214016C00032B01D129F008B8704700BF902C002053
S214016C100080005000239B6AB3F5903F03D21968A9
S214016C20064A914203D00023037083607047012215
S214016C3002709A689B694260F7E700BF07B0CD5EB5
S214016C4000239B6A10B5B3F5903F11D219680A4A22
S214016C5091420DD1094C227812F0FD0F01D000208F
S214016C6010BDDB6998470028FAD101232370F6E7A7
S214016C704FF48170F4E700BF07B0CD5E0529002010
S214016C80024B034A1A601EF0E0BD00BF0000002060
S214016C9002020FF0BFF34F8F0549064BCA6802F494
S214016CA0E0621343CB60BFF34F8F00BFFDE700BF29
S214016CB000ED00E00400FA0530B5056887B0AB8842
S214016CC004461848ADF80C302AF0E3F900220121F9
S214016CD003A800F0FDF80DF10B0103A800F0B2F9CE
S214016CE09DF80B3083F001032B70AB79022B15D185
S214016CF04FF0FF330022CDE9043304A90A4B009478
S214016D0003A800F04FFA049B009401330CBF042241
S214016D100122054B05A903A800F0C2F9002007B01F
S214016D2030BD00BFC828040065480300002307B52E
S214016D30294801932AF0ADF94FF44073012204214A
S214016D406846ADF8003000F0C3F80122234B052059
S214016D50C3F8442401A92AF097F9002839D1204B19
S214016D60D3F8F02042F00102C3F8F020D3F8FC205B
S214016D7042F08072C3F8FC201A4AA3F55D431A60FC
S214016D80019B194A03F5D52303F2FC43B3FBF2F347
S214016D90164A013B13610223C2F8F0304FF48073A8
S214016DA0C2F804334FF06043114AC3F8B02F114ABA
S214016DB0C3F8802ED3F8002E42F48072C3F8002E5A
S214016DC0FF2283F82020D3F8002E22F48072C3F825
S214016DD0002E03B05DF804FBC828040000D0035061
S214016DE000ED00E0FF030040F8590D00000004E04C
S214016DF055CEACC5090001004FF06043D3F8802E94
S214016E0030B5D20715D501240B4D8440D5F8FC20AA
S214016E1042F08072C5F8FC20D3F8002E2243C3F856
S214016E20002E53F82020002AF0D003F8201000206E
S214016E3030BD1120FCE700BF00ED00E02DE9F04178
S214016E4004460C254FF00108124E0CB314F0010055
S214016E500BD0002024F0010405FB00625768002FC8
S214016E60F3D09168C0B2B847EFE722460130202838
S214016E704FEA520201D0D307F8D508FA00F20F28DC
S214016E8024EA0204E8D9103805FB0062B432E5E7CB
S214016E90BDE8F0816810002008B50C482AF0F9F822
S214016EA0192005F0E1FA28B1192005F0EBFA1920AE
S214016EB005F0CCFA1A2005F0D7FA28B11A2005F009
S214016EC0E1FA1A2005F0C2FA002008BDC82804001D
S214016ED02DE9F0410E461746054610B30F2922D874
S214016EE00378DBB1013BDBB2022B1CD8104AD35C22
S214016EF06A78D340DB0716D50E4BD3F81043A4B9F6
S214016F0029F0E6FF80463A462846314603F0FEFF62
S214016F10404629F0D8FF2046BDE8F08140F2FF1335
S214016F20E6E72224F7E72124F5E70224F3E700BF8A
S214016F307427040000C0035010B5044608B3037854
S214016F40E3B1013BDBB2022B1DD8104AD35C627859
S214016F50D340DB0717D529F0BBFF012261782378E0
S214016F608A4030214B4341F2100103F1A04303F55F
S214016F7070335A5029F0A7FF002010BD40F2FF13CE
S214016F80E5E72220F9E72120F7E700BF7427040090
S214016F9010B5044608B30378E3B1013BDBB2022B1C
S214016FA01DD8104AD35C6278D340DB0717D529F089
S214016FB08FFF0122617823788A4030214B4342F2C9
S214016FC0100103F1A04303F570335A5029F07BFFFB
S214016FD0002010BD40F2FF13E5E72220F9E721204B
S214016FE0F7E700BF7427040038B50D46044610B312
S214016FF009B30378E3B1013BDBB2022B1DD8104A7B
S214017000D35C6278D340DB0717D529F061FF3022C5
S2140170102378534303F1A04303F570331B69627869
S214017020D34003F001032B7029F04DFF002038BD3B
S21401703040F2FF13E5E72220F9E72120F7E700BF3A
S2140170407427040038B50D46044610B309B3037817
S214017050E3B1013BDBB2022B1DD8104AD35C627848
S214017060D340DB0717D529F033FF3022237853436B
S21401707003F1A04303F570335B696278D34003F0F4
S21401708001032B7029F01FFF002038BD40F2FF13CB
S214017090E5E72220F9E72120F7E700BF742704007F
S2140170A02DE9F0410D46164698460446002851D073
S2140170B000294FD00378002B42D05A1ED2B2022AA2
S2140170C003D9FF2B07D0212042E0234B9B5C42785B
S2140170D0D340DA07F7D5022E01D9042EF3D129F0D1
S2140170E0F7FE23780746FF2B05D03246204629684F
S2140170F003F052FF28602B68013309D12378FF2B58
S21401710006D1164B6078D3F824141EF0ADFA286029
S21401711029684B1C18D00C23114A03FB0122069B3D
S214017120C2F8048093602378FF2B04D001230D4A14
S2140171308B40C2F82434384629F0C5FE002007E00B
S21401714040F2FF134278C3E7384629F0BCFE2D20F3
S214017150BDE8F0812220FBE77427040000C003503D
S2140171606810002000D003500F2810B5044613D82D
S21401717029F0AEFE0123094AA340C2F82034C2F822
S21401718024340C22064B02FB04330024C3E90144D9
S21401719029F099FE204610BD2120FCE700E00350AF
S2140171A0681000202DE9F0410D4690461F46044622
S2140171B0002842D0002940D00378002B33D0591E36
S2140171C0C9B2022903D9FF2B07D0212033E01C4B7B
S2140171D042785B5CD340DA07F7D529F079FE23784D
S2140171E00646FF2B05D042462046296803F05AFF83
S2140171F028602A68531C1AD00C23124903FB02117B
S214017200069BC1F8B870C1F8BC302378FF2B05D0B7
S2140172100123103293400C4AC2F82434304629F038
S21401722052FE002007E040F2FF134278D2E73046D4
S21401723029F049FE2D20BDE8F0812220FBE700BFA2
S214017240742704006810002000D0035008B503F02E
S21401725043FE054B00F0553020F05020C3F82004C3
S214017260BDE80840FFF7EABD00E0035008B503F0AB
S21401727033FE054B00F0AA3020F0A020C3F820040E
S214017280BDE80840FFF7DABD00E0035070B50368BB
S2140172902B4A0446934286B04ED02A4A934249D19D
S2140172A00125294829F0F5FEA3880122ADF8003012
S2140172B0E3880A216846ADF80430FFF709FE01228B
S2140172C00A2101A8FFF704FE0A266846FFF760FEBA
S2140172D0642006F07BF96846FFF72EFE642006F070
S2140172E075F9013EF1D103212B0103F1A04202F50C
S2140172F07032C2F890146079217903F1A04341EA13
S2140173000041C2F89414E179A27903F5703342EA98
S2140173100142C3F8982440F20113ADF80830E3683F
S21401732020680493A36802A90393237C8DF8143084
S21401733003F038F806B070BD00250448B2E700BF78
S2140173400000015A00800650C0280400C42804002A
S21401735038B5054603F062F9044C012801D1013C19
S21401736000D138BD284603F03FF8F6E7E193040064
S21401737013B504460A4829F08CFEA2780421B2FA15
S21401738082F2237852098DF8043063780DEB010000
S2140173908DF80530FFF79CFD002002B010BD00BF40
S2140173A0C82804002DE9F04F9A46564B85B01B7845
S2140173B006460F461546DDF83C909DF844B0DDF8CC
S2140173C05080002B00F09780072A00F296800E9BD3
S2140173D0002B00F09280B9F1000F00F08E80129B16
S2140173E0B3F5006F00F38980012803D1109B002BB1
S2140173F000F08380444B03EB05131B7B002B7ED0F0
S214017400424C10220021684626F079FC04EB451414
S2140174101022A7BB3946204626F071FC43F2100322
S2140174206380BBF1000F03D1E37843F00303E370FD
S214017430364A0E9B02EB451CCCE90193129B69016F
S214017440581E9DF84C30C0F30A0003F003039B0658
S21401745043EA001E53582E48012E00EA03004EEA66
S2140174600003CDF800A0535017D0B8F1000F2ED16D
S2140174709CF8023068F304138CF8023027E00021F0
S214017480204626F03CFC4FF444736380BBF1000FAA
S214017490CED1E37843F03003C9E713230CF1100E85
S2140174A0CCF80C309CE80F008EE80F006FF003015B
S2140174B0DCF81C20109B61F39F02012FCCF81C20E6
S2140174C0CCF8143003D1CCF81890CCF8043000274F
S2140174D00D4A290102EB051342F80180159A284648
S2140174E05A60694622469F605E7303F03BFB38464E
S2140174F005B0BDE8F08F0748FAE70748F8E7074800
S214017500F6E700BF06290020D0120020D011002087
S2140175100F80FFF3028000F0018000F0078000F08A
S21401752038B5124B05461B78DBB1E0B129F0D0FC2B
S2140175300F4A00231146147B54B92B6001251A010A
S21401754001EB03131D738C5029F0BDFC204638BD9A
S2140175500133082B02F11002EDD129F0B4FC0548E5
S214017560F5E70548F3E70548F1E700BF06290020DF
S214017570D0120020048000F0028000F0018000F0AC
S21401758038B529F0A5FC002305460B4A147B6CB9D7
S2140175900133082B02F11002F8D103F08FFA074BE2
S2140175A028461C7029F08FFC204603E0284629F067
S2140175B08AFC034838BD00BFD012002006290020EF
S2140175C0058000F00D4B10B51B78044693B10728D3
S2140175D012D829F07DFC0A4B03EB04131A7B2AB15F
S2140175E000241C7329F06FFC204610BD29F06BFCAB
S2140175F00448FAE70448F8E70448F6E706290020B5
S214017600D0120020068000F0028000F0018000F019
S214017610154B13B51868002301908DF8043029F036
S21401762057FC124B1C7824B129F04DFC104802B0CF
S21401763010BD01221A7029F046FC0E4B01A81C73DE
S2140176401C7783F82C4083F83C4083F84C4083F841
S2140176505C4083F86C4083F87C4008238DF8073043
S21401766003F050FA2046E2E77727040006290020B7
S214017670038000F0D0120020F8B50D4D2D7885B1AD
S214017680072810DC0B4D060105EB0014277B67B1BC
S214017690AB510025069BA560636003F063FA28469C
S2140176A0F8BD0548FCE70548FAE70548F8E700BFD6
S2140176B006290020D0120020028000F0018000F090
S2140176C0078000F00A4A08B512785AB107280BD885
S2140176D0084A02EB00131B7B43B1002103F004FAB6
S2140176E0002008BD0448FCE70448FAE70448F8E728
S2140176F006290020D0120020028000F0018000F050
S214017700078000F00A4A08B512785AB107280BD844
S214017710084A02EB00131B7B43B1012103F0E4F995
S214017720002008BD0448FCE70448FAE70448F8E7E7
S21401773006290020D0120020028000F0018000F00F
S214017740078000F0184B2DE9F0411F6D5B6D1F405F
S21401775000D5FEE701260025144CDFF85880374295
S21401776018D02368C8F85060A3B1A1682846013133
S2140177706268A1609847637B012B0BD150B90C4B13
S21401778003EB45131A7B60F341021A731A7F60F309
S21401779041021A770135082D4FEA460604F1100416
S2140177A0DDD1BDE8F08100BF00000450D0120020FA
S2140177B0D0110020002004502DE9F04F1446064653
S2140177C00D469B46C36B87B001225B6902A96068C0
S2140177D09847F36B01225B6903A92846984702A8DC
S2140177E01DF019FD074648B10023A37563754FF0D8
S2140177F0FF33A360002007B0BDE8F08F03A81DF09B
S21401780017FD0123A375237E04EBC303DD611F84EB
S2140178106368AB420ED1206003A81DF02BFD4FF02C
S214017820FF332075A360237D043B022B26D800235B
S214017830A375DFE723681A1A53425341A37503A8B9
S2140178401DF018FD237D834218BFA77503A81DF000
S214017850F3FC074602A81DF0EFFC874218BF002381
S21401786003A818BFA3751DF0EFFC074602A81DF07C
S214017870EBFC87421CBF0023A375D4E703A81DF0C9
S214017880DBFC80B1F36B022228465B6904A99847AA
S21401789004A81DF0E0FC0346207D032839D8DFE864
S2140178A000F03838040903A8F3E7CC22237E04EB62
S2140178B0C3031A8401F0E8FA109B187003A8277E08
S2140178C01DF0AEFC04EBC70787F82200237E03A851
